{
  "contractName": "ryncoin_ico",
  "abi": [
    {
      "inputs": [],
      "name": "max_ryncoins",
      "outputs": [
        {
          "internalType": "uint256",
          "name": "",
          "type": "uint256"
        }
      ],
      "stateMutability": "view",
      "type": "function"
    },
    {
      "inputs": [],
      "name": "total_ryncoins_bought",
      "outputs": [
        {
          "internalType": "uint256",
          "name": "",
          "type": "uint256"
        }
      ],
      "stateMutability": "view",
      "type": "function"
    },
    {
      "inputs": [],
      "name": "usd_to_ryncoins",
      "outputs": [
        {
          "internalType": "uint256",
          "name": "",
          "type": "uint256"
        }
      ],
      "stateMutability": "view",
      "type": "function"
    },
    {
      "inputs": [
        {
          "internalType": "address",
          "name": "investor",
          "type": "address"
        }
      ],
      "name": "equity_in_ryncoins",
      "outputs": [
        {
          "internalType": "uint256",
          "name": "",
          "type": "uint256"
        }
      ],
      "stateMutability": "view",
      "type": "function"
    },
    {
      "inputs": [
        {
          "internalType": "address",
          "name": "investor",
          "type": "address"
        }
      ],
      "name": "equity_in_usd",
      "outputs": [
        {
          "internalType": "uint256",
          "name": "",
          "type": "uint256"
        }
      ],
      "stateMutability": "view",
      "type": "function"
    },
    {
      "inputs": [
        {
          "internalType": "address",
          "name": "investor",
          "type": "address"
        },
        {
          "internalType": "uint256",
          "name": "usd_invested",
          "type": "uint256"
        }
      ],
      "name": "buy_ryncoins",
      "outputs": [],
      "stateMutability": "nonpayable",
      "type": "function"
    },
    {
      "inputs": [
        {
          "internalType": "address",
          "name": "investor",
          "type": "address"
        },
        {
          "internalType": "uint256",
          "name": "ryncoins_to_sell",
          "type": "uint256"
        }
      ],
      "name": "sell_ryncoins",
      "outputs": [],
      "stateMutability": "nonpayable",
      "type": "function"
    }
  ],
  "bytecode": "0x6080604052620f42405f556103e86001555f60025534801561001f575f80fd5b506106c88061002d5f395ff3fe608060405234801561000f575f80fd5b506004361061007b575f3560e01c806333ea64e61161005957806333ea64e6146100eb5780633aef06a91461010757806376cb45f114610123578063a5571279146101535761007b565b806310c51c1b1461007f5780631a540a99146100af578063238b8ef1146100cd575b5f80fd5b6100996004803603810190610094919061049d565b610171565b6040516100a691906104e0565b60405180910390f35b6100b76101b7565b6040516100c491906104e0565b60405180910390f35b6100d56101bd565b6040516100e291906104e0565b60405180910390f35b61010560048036038101906101009190610523565b6101c3565b005b610121600480360381019061011c9190610523565b6102f9565b005b61013d6004803603810190610138919061049d565b6103f4565b60405161014a91906104e0565b60405180910390f35b61015b61043a565b60405161016891906104e0565b60405180910390f35b5f60045f8373ffffffffffffffffffffffffffffffffffffffff1673ffffffffffffffffffffffffffffffffffffffff1681526020019081526020015f20549050919050565b60025481565b60015481565b805f54600254600154836101d7919061058e565b6101e191906105cf565b11156101eb575f80fd5b5f600154836101fa919061058e565b90508060035f8673ffffffffffffffffffffffffffffffffffffffff1673ffffffffffffffffffffffffffffffffffffffff1681526020019081526020015f205f82825461024891906105cf565b925050819055506103e860035f8673ffffffffffffffffffffffffffffffffffffffff1673ffffffffffffffffffffffffffffffffffffffff1681526020019081526020015f205461029a919061062f565b60045f8673ffffffffffffffffffffffffffffffffffffffff1673ffffffffffffffffffffffffffffffffffffffff1681526020019081526020015f20819055508060025f8282546102ec91906105cf565b9250508190555050505050565b8060035f8473ffffffffffffffffffffffffffffffffffffffff1673ffffffffffffffffffffffffffffffffffffffff1681526020019081526020015f205f828254610345919061065f565b925050819055506103e860035f8473ffffffffffffffffffffffffffffffffffffffff1673ffffffffffffffffffffffffffffffffffffffff1681526020019081526020015f2054610397919061062f565b60045f8473ffffffffffffffffffffffffffffffffffffffff1673ffffffffffffffffffffffffffffffffffffffff1681526020019081526020015f20819055508060025f8282546103e9919061065f565b925050819055505050565b5f60035f8373ffffffffffffffffffffffffffffffffffffffff1673ffffffffffffffffffffffffffffffffffffffff1681526020019081526020015f20549050919050565b5f5481565b5f80fd5b5f73ffffffffffffffffffffffffffffffffffffffff82169050919050565b5f61046c82610443565b9050919050565b61047c81610462565b8114610486575f80fd5b50565b5f8135905061049781610473565b92915050565b5f602082840312156104b2576104b161043f565b5b5f6104bf84828501610489565b91505092915050565b5f819050919050565b6104da816104c8565b82525050565b5f6020820190506104f35f8301846104d1565b92915050565b610502816104c8565b811461050c575f80fd5b50565b5f8135905061051d816104f9565b92915050565b5f80604083850312156105395761053861043f565b5b5f61054685828601610489565b92505060206105578582860161050f565b9150509250929050565b7f4e487b71000000000000000000000000000000000000000000000000000000005f52601160045260245ffd5b5f610598826104c8565b91506105a3836104c8565b92508282026105b1816104c8565b915082820484148315176105c8576105c7610561565b5b5092915050565b5f6105d9826104c8565b91506105e4836104c8565b92508282019050808211156105fc576105fb610561565b5b92915050565b7f4e487b71000000000000000000000000000000000000000000000000000000005f52601260045260245ffd5b5f610639826104c8565b9150610644836104c8565b92508261065457610653610602565b5b828204905092915050565b5f610669826104c8565b9150610674836104c8565b925082820390508181111561068c5761068b610561565b5b9291505056fea26469706673582212204686e2769c0a86d9fcb7f0f2da62a6cac04f00e75ecaf424ecd45a82233bff4264736f6c63430008150033",
  "immutableReferences": {},
  "source": "pragma solidity ^0.8.21;\r\n\r\ncontract ryncoin_ico {\r\n  \r\n\r\n  // introducing the maximum number of available for sale\r\n  uint public max_ryncoins = 1000000;\r\n\r\n  // introducing the USD to ryncoin convertion rate\r\n  uint public usd_to_ryncoins = 1000;\r\n\r\n  // introducing the total number of coin that have been bought by the investor\r\n  uint public total_ryncoins_bought = 0;\r\n\r\n  // mapping from the investor adress to its equity in ryncoins and USD\r\n  mapping(address => uint) equity_ryncoins;\r\n  mapping(address => uint) equity_usd;\r\n\r\n  // checking if an investor can buy ryncoins\r\n  modifier can_buy_ryncoins(uint usd_invested){\r\n    require(usd_invested * usd_to_ryncoins + total_ryncoins_bought <= max_ryncoins );\r\n    _;\r\n  }\r\n\r\n  //getting the equity in ryncoins of an investor\r\n  function equity_in_ryncoins(address investor) external view returns (uint){\r\n    return equity_ryncoins[investor];\r\n  }\r\n\r\n  // getting the equity in usd\r\n  function equity_in_usd(address investor) external view returns (uint){\r\n    return equity_usd [investor];\r\n  }\r\n\r\n  // buying ryncoins\r\n  function buy_ryncoins(address investor, uint usd_invested) external can_buy_ryncoins(usd_invested){\r\n    uint ryncoins_bought = usd_invested * usd_to_ryncoins;\r\n    equity_ryncoins[investor] += ryncoins_bought;\r\n    equity_usd[investor] = equity_ryncoins[investor] / 1000;\r\n    total_ryncoins_bought += ryncoins_bought;\r\n  }\r\n\r\n  //selling ryncions\r\n  function sell_ryncoins(address investor, uint ryncoins_to_sell) external {\r\n\r\n    equity_ryncoins[investor] -= ryncoins_to_sell;\r\n    equity_usd[investor] = equity_ryncoins[investor] / 1000;\r\n    total_ryncoins_bought -= ryncoins_to_sell;\r\n  }\r\n\r\n\r\n\r\n}",
  "sourcePath": "D:\\Python\\blockchain\\contracts\\ryncoin_ico.sol",
  "compiler": {
    "name": "solc",
    "version": "0.8.21+commit.d9974bed.Emscripten.clang"
  },
  "schemaVersion": "3.4.16",
  "updatedAt": "2024-12-24T22:46:34.376Z",
  "devdoc": {
    "kind": "dev",
    "methods": {},
    "version": 1
  },
  "userdoc": {
    "kind": "user",
    "methods": {},
    "version": 1
  }
}